:020000020000FC
:0200000029C015
:04001C000C94D1006F
:1000540018E00EE51EBF0DBF0ED044D0FCD178943D
:1000640000C20F9305E003BF08B70270E9F7002749
:1000740003BF0F9108951F930F9310E007E610BD7F
:1000840009B908E00AB986E103D00F911F910895D8
:100094005D9BFECF8CB908950F938CE0F9DFE1DF0F
:1000A40086E1F6DF0F9108950F9384E9F1DF0F9154
:1000B4000895BF93AF938D91EBDFCA17DB07DCF78D
:1000C400AF91BF910895BF93AF93FF93EF93FD0159
:1000D4008591DEDFCE17DF07DCF7EF91FF91AF915B
:1000E400BF9108951F930F9311E000E010936300F4
:1000F4000093600000936100009362000093640029
:100104000093670000936600009368000093690001
:1001140010EC0DE01FBD0EBD1DE309E01BBD0ABDC3
:1001240009B7006109BF6DD00F911F9108950F9316
:1001340060E008F003C000EA800F61E02DF0082FB2
:100144000F700A3008F402C006E0800F082F0295F1
:100154000F70063008F403C000EA800F61E00F91CD
:1001640008950F9360E008F003C000E6800F61E09B
:100174002DF0082F0F700A3008F402C006E0800F3B
:10018400082F02950F700A3008F403C000E6800FB0
:1001940061E0843210F080E061E00F9108950F93E4
:1001A4001F930FB70F9308B311E0012708BB07D0C3
:1001B40028D091D00F910FBF1F910F9118951F93C5
:1001C4000F938F930091600011E0010F802FAFDF38
:1001D400082F0093600000916100162F010F802FFB
:1001E400A6DF082F0093610000916200162F010F13
:1001F400802FB7DF082F009362008F910F911F911A
:1002040008951F930F938F9300916300013009F4B5
:1002140001C05DC000916800013071F0109162006E
:10022400103019F0133118F409C012E107C0012F7E
:1002340012E1011B102F02C010916200012F1295D0
:100244000F701F7080E3080F180F26DF812F20DF47
:10025400802F1EDF00916000017011F04AE301C09D
:1002640040E200916100102F12950F701F7080E31F
:10027400080F180F842F0CDF812F0ADF802F08DF6F
:1002840000916900003079F000916000102F129500
:100294000F701F7080E3080F180F842FF9DE812F71
:1002A400F7DE802FF5DE08E6013089F00091620068
:1002B4000C3038F480E2ECDE81E4EADE8DE4E8DE42
:1002C40006C080E2E5DE80E5E3DE8DE4E1DE8F91C9
:1002D4000F911F9108951F930F939F938F930091F4
:1002E4006400003011F41AD014C00091650000308D
:1002F40011F414D00EC0109162000091610097E6D1
:1003040086E68017910721F000E00093650001C0A4
:100314000AD08F919F910F911F9108950F9300E040
:1003240005BD0F9108950F9305E705BD00E803BDD2
:1003340000E004BD0F9108951F930F931EE201ED99
:1003440017BB08BB00000000000000000000000014
:100354000000000000000000000000000000000099
:1003640000000000000000000000000006B3003D93
:1003740011F481E00EC0013511F485E00AC00139A1
:1003840011F489E006C0013C11F48DE002C080E064
:100394002FC011ED0EE217BB08BB000000000000E7
:1003A4000000000000000000000000000000000049
:1003B4000000000000000000000000000000000039
:1003C4000000000006B30E3019F410E0810F10C0D5
:1003D400063219F411E0810F0BC00A3219F412E04D
:1003E400810F06C00C3219F413E0810F01C080E0C4
:1003F4000F911F9108951F930F939EDF8030E9F3AF
:100404008F932FDE99DF8030E9F78F918D3029F0BB
:100414008F30D9F00F911F9108958F939F9300E02F
:10042400009365000091660015E0010F802F7FDEC8
:100434008093660080916700890F93DE8093670044
:100444009F918F910F911F91089500E00093650093
:100454000F911F9108950F930027202F302F0F9194
:100464000895C9DF803109F0FCCF00E000936300F8
:1004740013DE01E455D0BFDF843061F0883079F0B9
:100484008C30E9F0803109F0F5CF01E0009363008E
:10049400B8DEE7CF2A95253038F020E005C0239553
:1004A400253010F024E000C0022F031B02301CF49E
:1004B40000301CF0DFCF3395DDCF3A95DBCF203011
:1004C40039F02130D1F0223001F1233041F00EC057
:1004D400009164000095017000936400CBCF0091FB
:1004E40068000095017000936800C4CF0091690012
:1004F4000095017000936900BDCFB8D5F89430928F
:100504006700209266007894B5CFB0D5F894309205
:100514006200209261000027009360007894AACFC3
:10052400BF93AF93DF93CF93B7DD231731F0B0E1DF
:10053400A0E0D0E1C0E0C7DD05C0B0E1A2E0D0E1B9
:10054400C2E0C1DD303029F0313029F0323049F0D9
:100554000EC037D00DC0B0E1ACE1D0E1C6E2B3DDEE
:1005640007C0B0E1A8E2D0E1C2E3ADDD01C03CD0F8
:100574009BDD231731F0B0E1A2E0D0E1C2E0A3DDBE
:1005840005C0B0E1A0E0D0E1C0E09DDD303029F04D
:10059400313049F0323069F00EC0B0E1ACE1D0E165
:1005A400C6E291DD09C0B0E1A8E2D0E1C2E38BDD8F
:1005B40003C01AD001C02BD0CF91DF91AF91BF916E
:1005C40008950F9300916400003039F4B0E1A4E081
:1005D400D0E1CEE078DD0F910895B0E1A0E1D0E163
:1005E400CAE171DD0F9108950F9300916800003006
:1005F40039F4B0E1A4E3D0E1C2E465DD0F910895DC
:10060400B0E1A4E4D0E1C2E55EDD0F9108950F935B
:1006140000916900003039F4B0E1A4E5D0E1C0E60E
:1006240052DD0F910895B0E1A2E6D0E1CEE64BDDB4
:040634000F91089585
:1010000020203E20416C61726D3A204F66662020A0
:10101000416C61726D3A204F6E2020205365742020
:10102000616C61726D2020205365742074696D6558
:101030002020202031322F323420486F75723A2020
:101040003132202031322F323420486F75723A20ED
:10105000323420205365636F6E64733A204F6666A6
:1010600020205365636F6E64733A204F6E202020FA
:10107000BF93AF93DF93CF939F938F937F936F93A0
:101080000DD8B0E2A0E0D0E2CCE01FD80FD807C066
:1010900005D8B0E2AEE0D0E2C8E117D807D8ADD9A4
:1010A0008430E9F38830D9F38C30C9F38D30B9F34B
:1010B0008F30A9F38031E1F058D0982F9295392ED6
:1010C00000E3800F0E944A0098D98430E9F3883009
:1010D000D9F38C30C9F38D30B9F38F30A9F3803157
:1010E000D1F143D0380E00E3800F0E944A0001C0C6
:1010F00032C0832D843260F68AE30E944A007DD993
:101100008430E9F38830D9F38C30C9F38D30B9F3EA
:101110008F30A9F38031F9F028D0982F9295292E9D
:1011200000E3800F0E944A0068D98430E9F38830D8
:10113000D9F38C30C9F38D30B9F38F30A9F38031F6
:1011400051F013D0280E00E3800F0E944A00822D38
:10115000803650F452D96F917F918F919F91CF91AA
:10116000DF91AF91BF91089593CF813011F481E069
:101170000895823011F482E00895833011F483E001
:101180000895853011F484E00895863011F485E0E7
:101190000895873011F486E00895893011F487E0CE
:1011A00008958A3011F488E008958B3011F489E0B5
:0611B000089580E008959F
:10200000456E7465722074696D653A2020205472A3
:0A2010007920616761696E3A2020B3
:00000001FF
